{
  "contractName": "Swap",
  "abi": [
    {
      "inputs": [],
      "stateMutability": "nonpayable",
      "type": "constructor"
    },
    {
      "anonymous": false,
      "inputs": [
        {
          "indexed": false,
          "internalType": "uint256",
          "name": "amount",
          "type": "uint256"
        },
        {
          "indexed": false,
          "internalType": "address",
          "name": "to",
          "type": "address"
        }
      ],
      "name": "Swapped",
      "type": "event"
    },
    {
      "inputs": [
        {
          "internalType": "address",
          "name": "",
          "type": "address"
        }
      ],
      "name": "ethBalance",
      "outputs": [
        {
          "internalType": "uint256",
          "name": "",
          "type": "uint256"
        }
      ],
      "stateMutability": "view",
      "type": "function",
      "constant": true
    },
    {
      "stateMutability": "payable",
      "type": "receive",
      "payable": true
    },
    {
      "inputs": [
        {
          "internalType": "address",
          "name": "token",
          "type": "address"
        },
        {
          "internalType": "uint256",
          "name": "amountIn",
          "type": "uint256"
        },
        {
          "internalType": "uint256",
          "name": "amountOutMin",
          "type": "uint256"
        }
      ],
      "name": "swapTokensForEth",
      "outputs": [
        {
          "internalType": "bool",
          "name": "",
          "type": "bool"
        }
      ],
      "stateMutability": "payable",
      "type": "function",
      "payable": true
    },
    {
      "inputs": [],
      "name": "withdrawEth",
      "outputs": [],
      "stateMutability": "nonpayable",
      "type": "function"
    },
    {
      "inputs": [],
      "name": "getEthBalance",
      "outputs": [
        {
          "internalType": "uint256",
          "name": "",
          "type": "uint256"
        }
      ],
      "stateMutability": "view",
      "type": "function",
      "constant": true
    },
    {
      "inputs": [],
      "name": "getBalance",
      "outputs": [
        {
          "internalType": "uint256",
          "name": "",
          "type": "uint256"
        }
      ],
      "stateMutability": "view",
      "type": "function",
      "constant": true
    }
  ],
  "bytecode": "0x608060405234801561001057600080fd5b50737a250d5630b4cf539739df2c5dacb4c659f2488d600160006101000a81548173ffffffffffffffffffffffffffffffffffffffff021916908373ffffffffffffffffffffffffffffffffffffffff160217905550610e2e806100756000396000f3fe60806040526004361061004e5760003560e01c806312065fe01461005a578063259fde431461008557806370ed0ada146100b5578063a0ef91df146100e0578063d8f3790f146100f757610055565b3661005557005b600080fd5b34801561006657600080fd5b5061006f610134565b60405161007c9190610aa7565b60405180910390f35b61009f600480360381019061009a9190610862565b61013c565b6040516100ac9190610a4c565b60405180910390f35b3480156100c157600080fd5b506100ca610557565b6040516100d79190610aa7565b60405180910390f35b3480156100ec57600080fd5b506100f561059d565b005b34801561010357600080fd5b5061011e60048036038101906101199190610808565b6106e9565b60405161012b9190610aa7565b60405180910390f35b600047905090565b600080600267ffffffffffffffff81111561015a57610159610d0d565b5b6040519080825280602002602001820160405280156101885781602001602082028036833780820191505090505b50905084816000815181106101a05761019f610cde565b5b602002602001019073ffffffffffffffffffffffffffffffffffffffff16908173ffffffffffffffffffffffffffffffffffffffff1681525050600160009054906101000a900473ffffffffffffffffffffffffffffffffffffffff1673ffffffffffffffffffffffffffffffffffffffff1663ad5c46486040518163ffffffff1660e01b815260040160206040518083038186803b15801561024257600080fd5b505afa158015610256573d6000803e3d6000fd5b505050506040513d601f19601f8201168201806040525081019061027a9190610835565b8160018151811061028e5761028d610cde565b5b602002602001019073ffffffffffffffffffffffffffffffffffffffff16908173ffffffffffffffffffffffffffffffffffffffff16815250508473ffffffffffffffffffffffffffffffffffffffff1663095ea7b3600160009054906101000a900473ffffffffffffffffffffffffffffffffffffffff16866040518363ffffffff1660e01b8152600401610325929190610a23565b602060405180830381600087803b15801561033f57600080fd5b505af1158015610353573d6000803e3d6000fd5b505050506040513d601f19601f8201168201806040525081019061037791906108fe565b6103b6576040517f08c379a00000000000000000000000000000000000000000000000000000000081526004016103ad90610a67565b60405180910390fd5b600160009054906101000a900473ffffffffffffffffffffffffffffffffffffffff1673ffffffffffffffffffffffffffffffffffffffff166318cbafe585858430620186a0426104079190610be0565b6040518663ffffffff1660e01b8152600401610427959493929190610aeb565b600060405180830381600087803b15801561044157600080fd5b505af1158015610455573d6000803e3d6000fd5b505050506040513d6000823e3d601f19601f8201168201806040525081019061047e91906108b5565b50826000803373ffffffffffffffffffffffffffffffffffffffff1673ffffffffffffffffffffffffffffffffffffffff16815260200190815260200160002060008282546104cd9190610be0565b925050819055507f037d36da4df5212b322c51a487c4824a0e84bf0836903905500cf55aec3c725d6000803373ffffffffffffffffffffffffffffffffffffffff1673ffffffffffffffffffffffffffffffffffffffff1681526020019081526020016000205433604051610543929190610ac2565b60405180910390a160019150509392505050565b60008060003373ffffffffffffffffffffffffffffffffffffffff1673ffffffffffffffffffffffffffffffffffffffff16815260200190815260200160002054905090565b60008060003373ffffffffffffffffffffffffffffffffffffffff1673ffffffffffffffffffffffffffffffffffffffff168152602001908152602001600020541161061e576040517f08c379a000000000000000000000000000000000000000000000000000000000815260040161061590610a87565b60405180910390fd5b3373ffffffffffffffffffffffffffffffffffffffff166108fc6000803373ffffffffffffffffffffffffffffffffffffffff1673ffffffffffffffffffffffffffffffffffffffff168152602001908152602001600020549081150290604051600060405180830381858888f193505050501580156106a2573d6000803e3d6000fd5b5060008060003373ffffffffffffffffffffffffffffffffffffffff1673ffffffffffffffffffffffffffffffffffffffff16815260200190815260200160002081905550565b60006020528060005260406000206000915090505481565b600061071461070f84610b6a565b610b45565b9050808382526020820190508285602086028201111561073757610736610d41565b5b60005b85811015610767578161074d88826107f3565b84526020840193506020830192505060018101905061073a565b5050509392505050565b60008135905061078081610db3565b92915050565b60008151905061079581610db3565b92915050565b600082601f8301126107b0576107af610d3c565b5b81516107c0848260208601610701565b91505092915050565b6000815190506107d881610dca565b92915050565b6000813590506107ed81610de1565b92915050565b60008151905061080281610de1565b92915050565b60006020828403121561081e5761081d610d4b565b5b600061082c84828501610771565b91505092915050565b60006020828403121561084b5761084a610d4b565b5b600061085984828501610786565b91505092915050565b60008060006060848603121561087b5761087a610d4b565b5b600061088986828701610771565b935050602061089a868287016107de565b92505060406108ab868287016107de565b9150509250925092565b6000602082840312156108cb576108ca610d4b565b5b600082015167ffffffffffffffff8111156108e9576108e8610d46565b5b6108f58482850161079b565b91505092915050565b60006020828403121561091457610913610d4b565b5b6000610922848285016107c9565b91505092915050565b60006109378383610943565b60208301905092915050565b61094c81610c36565b82525050565b61095b81610c36565b82525050565b600061096c82610ba6565b6109768185610bbe565b935061098183610b96565b8060005b838110156109b2578151610999888261092b565b97506109a483610bb1565b925050600181019050610985565b5085935050505092915050565b6109c881610c48565b82525050565b60006109db600e83610bcf565b91506109e682610d61565b602082019050919050565b60006109fe602083610bcf565b9150610a0982610d8a565b602082019050919050565b610a1d81610c74565b82525050565b6000604082019050610a386000830185610952565b610a456020830184610a14565b9392505050565b6000602082019050610a6160008301846109bf565b92915050565b60006020820190508181036000830152610a80816109ce565b9050919050565b60006020820190508181036000830152610aa0816109f1565b9050919050565b6000602082019050610abc6000830184610a14565b92915050565b6000604082019050610ad76000830185610a14565b610ae46020830184610952565b9392505050565b600060a082019050610b006000830188610a14565b610b0d6020830187610a14565b8181036040830152610b1f8186610961565b9050610b2e6060830185610952565b610b3b6080830184610a14565b9695505050505050565b6000610b4f610b60565b9050610b5b8282610c7e565b919050565b6000604051905090565b600067ffffffffffffffff821115610b8557610b84610d0d565b5b602082029050602081019050919050565b6000819050602082019050919050565b600081519050919050565b6000602082019050919050565b600082825260208201905092915050565b600082825260208201905092915050565b6000610beb82610c74565b9150610bf683610c74565b9250827fffffffffffffffffffffffffffffffffffffffffffffffffffffffffffffffff03821115610c2b57610c2a610caf565b5b828201905092915050565b6000610c4182610c54565b9050919050565b60008115159050919050565b600073ffffffffffffffffffffffffffffffffffffffff82169050919050565b6000819050919050565b610c8782610d50565b810181811067ffffffffffffffff82111715610ca657610ca5610d0d565b5b80604052505050565b7f4e487b7100000000000000000000000000000000000000000000000000000000600052601160045260246000fd5b7f4e487b7100000000000000000000000000000000000000000000000000000000600052603260045260246000fd5b7f4e487b7100000000000000000000000000000000000000000000000000000000600052604160045260246000fd5b600080fd5b600080fd5b600080fd5b600080fd5b6000601f19601f8301169050919050565b7f417070726f7665206661696c6564000000000000000000000000000000000000600082015250565b7f596f7520646f206e6f7420686176652065746820746f2077697468647261772e600082015250565b610dbc81610c36565b8114610dc757600080fd5b50565b610dd381610c48565b8114610dde57600080fd5b50565b610dea81610c74565b8114610df557600080fd5b5056fea2646970667358221220ce81590ca438097934f626648c11fc9e35e4051b200cba1ab21da126a19e1d1664736f6c63430008060033",
  "immutableReferences": {},
  "source": "pragma solidity >=0.4.22 <0.9.0;\n\nimport '@openzeppelin/contracts/token/ERC20/ERC20.sol';\n\ninterface IUniswap {\n  function swapExactTokensForETH(\n    uint amountIn, \n    uint amountOutMin, \n    address[] calldata path, \n    address to, \n    uint deadline)\n    external\n    returns (uint[] memory amounts);\n  function WETH() external pure returns (address);\n}\n\ncontract Swap {\n  mapping(address => uint) public ethBalance;\n\n  event Swapped(uint256 amount, address to);\n\n  IUniswap uniswap;\n\n  constructor() {\n    uniswap = IUniswap(0x7a250d5630B4cF539739dF2C5dAcb4c659F2488D);\n  }\n\n  function swapTokensForEth(address token, uint amountIn, uint amountOutMin) payable external returns (bool) {\n    address[] memory path = new address[](2);\n    path[0] = token;\n    path[1] = uniswap.WETH();\n    require(IERC20(token).approve(address(uniswap), amountIn), 'Approve failed');\n    uniswap.swapExactTokensForETH(\n      amountIn, \n      amountOutMin, \n      path, \n      address(this), \n      block.timestamp + 100000\n    );\n\n    ethBalance[msg.sender] += amountOutMin;\n\n    emit Swapped(ethBalance[msg.sender], msg.sender);\n\n    return true;\n  }\n\n  function withdrawEth() public {\n    require(ethBalance[msg.sender] > 0, 'You do not have eth to withdraw.');\n    payable(msg.sender).transfer(ethBalance[msg.sender]);\n    ethBalance[msg.sender] = 0;\n  }\n\n  function getEthBalance() public view returns (uint256) {\n    return ethBalance[msg.sender];\n  }\n\n  function getBalance() public view returns (uint256) {\n    return address(this).balance;\n  }\n\n  receive() external payable {}\n}",
  "sourcePath": "/Applications/MAMP/htdocs/uniswap/contracts/Swap.sol",
  "compiler": {
    "name": "solc",
    "version": "0.8.6+commit.11564f7e.Emscripten.clang"
  },
  "schemaVersion": "3.3.4",
  "updatedAt": "2021-07-18T09:42:29.992Z",
  "networkType": "ethereum",
  "devdoc": {
    "kind": "dev",
    "methods": {},
    "version": 1
  },
  "userdoc": {
    "kind": "user",
    "methods": {},
    "version": 1
  }
}